:020000040000FA
:10000000B80200106D0100007101000073010000D2
:100010007501000077010000790100000000000078
:100020000000000000000000000000007B01000054
:100030007D010000000000007F0100008101000040
:1000400083010000830100008301000083010000A0
:1000500083010000F12A00008301000083010000F9
:100060008301000083010000C1250000830100001E
:100070008301000083010000830100008301000070
:100080008301000083010000830100008301000060
:10009000830100008720000083010000830100002D
:1000A0008301000083010000830100008301000040
:1000B0008301000083010000830100008301000030
:1000C00083010000830100008301000000F002F8BA
:1000D00000F03AF80AA090E8000C82448344AAF1A8
:1000E0000107DA4501D100F02FF8AFF2090EBAE8A6
:1000F0000F0013F0010F18BFFB1A43F0010318475C
:10010000FC5700001C580000103A24BF78C878C182
:10011000FAD8520724BF30C830C144BF04680C600D
:10012000704700000023002400250026103A28BF55
:1001300078C1FBD8520728BF30C148BF0B60704759
:100140001FB51FBD10B510BD00F040F81146FFF7F8
:10015000F7FF00F054FA00F05EF803B4FFF7F2FF87
:1001600003BC00F05FF8000000BF7047084800477C
:10017000FEE7FEE7FEE7FEE7FEE7FEE7FEE7FEE757
:10018000FEE7FEE703480449024A044B70470000BB
:10019000CD000000B8000010B8020010B800001038
:1001A00070477047704710B500F008F8006810BD40
:1001B00010B5044600F002F8046010BD0048704716
:1001C0005400001000487047540000107546FFF7B7
:1001D000F9FFAE4605006946534620F00700854604
:1001E00018B020B5FFF7CEFFBDE820404FF0000665
:1001F0004FF000074FF000084FF0000B21F007010F
:10020000AC46ACE8C009ACE8C009ACE8C009ACE851
:10021000C0098D4670470446AFF300802046FFF7C3
:100220009CFF000001491820ABBEFEE7260002003B
:1002300070472DE9F04106460F4602F0DDFE04004E
:100240000D4618BF0120284320F00040C0F17F6018
:1002500000F1E040C00F0ED0301C18BF0120384321
:1002600020F00040C0F17F6000F1E040C00F04BF0B
:100270000120FFF79DFF20462946BDE8F081491087
:1002800058BFC1F140415B1058BFC3F140438B429E
:10029000EFF30080704700004FEA1153A3F580632D
:1002A000D3F11E03A8BFD3F1200C08DB4FF00042AE
:1002B00042EAC12252EA505232FA03F07047094230
:1002C0000BD4102BC4BF0020704703F5787CBCF121
:1002D000FF3F05D04FF0FF3070474FF000007047F0
:1002E00070B502F0F3FD00BF4992248000207047F2
:1002F000F0E7FF2141EAD050C0057047FFFFFFFF44
:1003000020207649086000BF7448006810F0400F54
:10031000FAD00320724908604FF000007149C1F81B
:10032000A801714908604FF00100704908607048E9
:10033000704908604FF00100A1F1040108604FF01E
:10034000AA006D4908604FF055006649C1F88C005D
:1003500000BF6A48006810F0806FFAD00320684937
:1003600008604FF0AA005F49C1F88C004FF05500BB
:10037000614908604FF000006249086062486349C3
:1003800008604FF000005749C1F8C8015B48006899
:10039000C0F30160032868D15448006810F00300DE
:1003A00006D0012823D002283FD003285CD100E0EA
:1003B00000BF52480068C0F30E0000F101004FEA90
:1003C0004000534900FB01F04649D1F88810C1F3C1
:1003D000074101F10101B0FBF1F141480068C0B2F1
:1003E00000F10100B1FBF0F04A4908603CE04348ED
:1003F0000068C0F30E0000F101004FEA40004649DA
:1004000000FB01F03749D1F88810C1F3074101F131
:100410000101B0FBF1F132480068C0B200F1010007
:10042000B1FBF0F03B4908601EE034480068C0F3BF
:100430000E0000F101004FEA40004FF4FA4100FBCA
:1004400001F02849D1F88810C1F3074101F10101F9
:10045000B0FBF1F122480068C0B200F10100B1FB2D
:10046000F0F02C49086000BF2FE02048006810F031
:10047000030006D0012810D0022819D0032823D168
:1004800000E000BF16480068C0B200F1010020493A
:10049000B1FBF0F01F49086016E011480068C0B2D7
:1004A00000F101001C49B1FBF0F01A4908600BE0B3
:1004B0000B480068C0B200F101004FF4FA41B1FBF3
:1004C000F0F01449086000BF00BF0648006820F43F
:1004D000704040F48040034908607047A0C10F405D
:1004E00004C10F4000C00F40ACC10F400CC10F4011
:1004F0006300050084C00F408CC00F4088C00F40CF
:1005000080C00F4008C10F40DE872804C4C00F40E0
:1005100000093D0000000010001BB70008B51F20B7
:100520002823502200210090EF2000F061FF4FF6B9
:10053000E0702823502219460090EF2000F058FF69
:100540004FF4FC602823502211460090EF2000F069
:100550004FFF4FF478402823502278210090EF205D
:1005600000F046FF47F60F0028235022A0210090FC
:10057000EF2000F03DFF40F2FF7028235022C821F9
:100580000090EF2000F034FF08BD0146062914D288
:10059000DFE801F00305080B0D10002070474FF64F
:1005A000FF70FBE74FF47840F8E71F20F6E74FF4C1
:1005B000FC60F3E74FF6E070F0E700BFEEE710B540
:1005C00000210BE0002205E0002300E05B1C642B0F
:1005D000FCD3521CB2F57A7FF6D3491C8142F1D389
:1005E00010BD00B5B948006810B90220FFF7E7FF59
:1005F000B648006808B9012000BD0020FCE71FB51F
:100600001F20B3490880FFF77BFE02F0C5F900F018
:10061000EDF9B048006840F43070AE490860084613
:10062000006C40F0FF00086401F065FF4FF6FF70BA
:10063000EF231A4600210090084600F0D9FEFFF78C
:100640006DFF4FF6FF7028231A460021009040F2FC
:10065000171000F0CDFE38E19F480068082870D1DF
:1006600000209D4908609D488479062C23D2DFE84C
:1006700004F0A30323486984984890F800A090F8F8
:1006800001B0807803909548C07802909349C8796A
:10069000FFF77BFF9249088008460088EF231A463F
:1006A00000210090084600F0A3FE59465046DDE9BF
:1006B000023200F045FE7FE0884890F800A090F8F4
:1006C00001B0807803908548C0780290834805790E
:1006D00046790146C879FFF758FF814908800846E6
:1006E0000088EF231A4600210090084600F080FEA3
:1006F000CDE9005659465046DDE9023201F096F840
:100700005AE0764890F800A090F801B08078039005
:100710007248C07802907149C879FFF736FF704976
:10072000088008460088EF231A46002100900846FA
:1007300000F05EFE59465046DDE9023201F0A4F8B1
:100740003AE03AE0654890F800A090F801B0877868
:100750000146C879FFF719FF6149088008460088FB
:10076000EF231A4600210090084600F041FE3A4669
:100770005946504601F0BEF81EE0584890F800A0D7
:1007800090F801B090F8028090F803900146C87983
:10079000FFF7FBFE5249088008460088EF231A46FF
:1007A00000210090084600F023FE4B464246594681
:1007B000504600F0A5FE00BF00BFFFF712FF4948FA
:1007C000007A01287ED1002001F097FB00BF01F0E4
:1007D0000CFC00204349087208464088F02867DB7B
:1007E000FFF79CFE3F480088282190FBF1F0062887
:1007F0005DD2DFE800F00311202F3E4D4FF6FF7071
:1008000028231A460021009040F2171000F0F0FD56
:100810001F202F4908804AE04FF6FF7028231A4610
:100820001946009040F2171000F0E2FD4FF6E0701C
:10083000274908803BE04FF6FF7028231A465021D5
:10084000009040F2171000F0D3FD4FF4FC602049F7
:1008500008802CE04FF6FF7028231A46782100907C
:1008600040F2171000F0C4FD4FF47840184908809A
:100870001DE04FF6FF7028231A46A021009040F299
:10088000171000F0B5FD47F60F00114908800EE083
:100890004FF6FF7028231A46C821009040F2171027
:1008A00000F0A6FD40F2FF700949088000BF00BFBC
:1008B00006480C300068002889D0012001F01DFB9B
:1008C00003E0FFE70120FFF77AFEC5E6A80A382318
:1008D0000400001000C009202C0000104800001087
:1008E0000E00001030000010800400BF0100A0F1D5
:1008F0000100FBD1704700BF0100A0F10100FBD156
:10090000704710B50446FE48006C40F0FF00FC49FB
:1009100008644FF400108861FFF726FC4FF40020B4
:10092000F749C861084644654FF480108861FFF7B5
:100930001BFCFFF719FC4FF48010F149C86120122D
:100940004865FFF711FC012010BD10B504464FF4B7
:100950000000EB49C861800088612046FFF7D1FFA5
:100960004FF08070E649C861FFF7FEFB4FF08070E2
:10097000E349886110BD10B504464FF40000E0491A
:100980008861800088612046FFF7BBFF4FF08070D0
:10099000DB49C861FFF7E8FB4FF08070D8498861F8
:1009A00010BD70B505460C464FF48000D449C861AF
:1009B0002846FFF7CAFF2046FFF7DDFF4FF480000F
:1009C000CF49886170BD70B5044600254FF48000A2
:1009D000CB49C861E0B2FFF7B8FF01F030F8054637
:1009E0004FF48000C6498861284670BD10B5C448E0
:1009F000006C40F0FF00C24908640846006840F0FF
:100A00007E7008604FF07E7088610520FFF76CFFF4
:100A10000020FFF7D8FFBB49088008460088A0F5F2
:100A20001341253905D0B7480088A0F5134128396E
:100A30007ED11021E720FFF7B4FF01210020FFF74E
:100A4000B0FF4FF480710120FFF7ABFF4FF4E0617E
:100A50000220FFF7A6FF41F230010320FFF7A1FFBC
:100A600000210420FFF79DFF40F207210820FFF737
:100A700098FF00210920FFF794FF00210A20FFF7CB
:100A800090FF01210C20FFF78CFF00210D20FFF7C4
:100A900088FF00210F20FFF784FF00211020FFF7BF
:100AA00080FF07211120FFF77CFF00211220FFF7B4
:100AB00078FF00211320FFF774FF0520FFF714FFD4
:100AC00041F290511020FFF76CFF40F227211120D6
:100AD000FFF767FF0520FFF707FF9C211220FFF7B4
:100AE00060FF0520FFF700FF4FF4C8511320FFF708
:100AF00058FF23212920FFF754FF0E212B20FFF759
:100B000050FF0520FFF7F0FE00212020FFF749FFEE
:100B100040F23F112120FFF744FF0520FFF7E4FEDC
:100B200007213020FFF73DFF40F20771312000E040
:100B300086E0FFF736FF06213220FFF732FF40F252
:100B400004713520FFF72DFF41F604713620FFF7C1
:100B500028FF04213720FFF724FF00213820FFF76A
:100B600020FF40F206713920FFF71BFF40F20171B0
:100B70003C20FFF716FF0F213D20FFF712FF052055
:100B8000FFF7B2FE00215020FFF70BFFEF215120AD
:100B9000FFF707FF00215220FFF703FF40F23F114C
:100BA0005320FFF7FEFE4FF427416020FFF7F9FEC8
:100BB00001216120FFF7F5FE00216A20FFF7F1FE19
:100BC00000218020FFF7EDFE00218120FFF7E9FEE4
:100BD00000218220FFF7E5FE00218320FFF7E1FEE0
:100BE00000218420FFF7DDFE00218520FFF7D9FEDC
:100BF00010219020FFF7D5FE00219220FFF7D1FEB3
:100C000003219320FFF7CDFE4FF488719520FFF765
:100C1000C8FE00219720FFF7C4FE00219820FFF7AF
:100C2000C0FE40F233110720FFF7BBFE0021202059
:100C3000FFF7B7FE40F23F112120FFF7B2FE54E16B
:100C400030480088A0F51341203904D02D48008891
:100C5000B0F5134F7ED100210846FFF7A2FE4FF4F6
:100C600080710120FFF79DFE4FF4E0610220FFF745
:100C700098FE41F230010320FFF793FE002104208B
:100C8000FFF78FFE40F202210820FFF78AFE0021C5
:100C90000920FFF786FE00210A20FFF782FE0121CE
:100CA0000C20FFF77EFE00210D20FFF77AFE0021C9
:100CB0000F20FFF776FE0520FFF716FE40F2011128
:100CC0000720FFF76EFE0520FFF70EFE4FF486515A
:100CD0001020FFF766FE07211120FFF762FE4FF498
:100CE00088711220FFF75DFE4FF430611320FFF78B
:100CF00058FE00212920FFF754FE44F2100103E0C2
:100D000000C00920100000102B20FFF74AFE002130
:100D10005020FFF746FEEF215120FFF742FE002151
:100D20005220FFF73EFE40F23F115320FFF739FEFD
:100D30004FF41C516020FFF734FE01216120FFF7C2
:100D400030FE00216A20FFF72CFE00218020FFF7F3
:100D500028FE00E032E000218120FFF722FE002182
:100D60008220FFF71EFE00218320FFF71AFE0021DC
:100D70008420FFF716FE00218520FFF712FE1021C8
:100D80009020FFF70EFE00219220FFF70AFE0121BE
:100D90009320FFF706FE4FF488719520FFF701FEC0
:100DA00000219720FFF7FDFD00219820FFF7F9FDB6
:100DB00040F273110720FFF7F4FD96E0FE4800882B
:100DC000A0F509419939F8D101210020FFF7E9FD8B
:100DD00043F63F310120FFF7E4FD4FF4C0610220EC
:100DE000FFF7DFFD07210C20FFF7DBFD06210D20BB
:100DF000FFF7D7FD4FF448510E20FFF7D2FDBB217E
:100E00001E20FFF7CEFD46F664210320FFF7C9FD43
:100E100000210F20FFF7C5FD4FF46F414420FFF77D
:100E2000C0FD00214520FFF7BCFD40F23F114620E8
:100E3000FFF7B7FD00213020FFF7B3FD40F2067148
:100E40003120FFF7AEFD40F206213220FFF7A9FD69
:100E50004FF440713320FFF7A4FD02213420FFF747
:100E6000A0FD00213520FFF79CFD40F207713620E0
:100E7000FFF797FD4FF400713720FFF792FD40F622
:100E800008113A20FFF78DFD40F60D713B20FFF76A
:100E900088FD06212820FFF784FD41F2EB212F2059
:100EA000FFF77FFD4FF4E0412620FFF77AFD4BF27C
:100EB000E3012020FFF775FD44212720FFF771FD96
:100EC00047F645612E20FFF76CFD00211020FFF74B
:100ED00068FD0820FFF708FD46F670011120FFF7B6
:100EE00060FD33210720FFF75CFD10BD10B5002128
:100EF0005020FFF756FDEF215120FFF752FD002152
:100F00005220FFF74EFD40F23F115320FFF749FDFD
:100F100010BD70B504460D46A7480088A0F50941EC
:100F2000993905D0A4480088A0F51941193908D18C
:100F300021464E20FFF735FD29464F20FFF731FDB2
:100F400007E021462020FFF72CFD29462120FFF74E
:100F500028FD70BD70B50546FFF7C8FF00210846A3
:100F6000FFF7D7FF4FF480009449C8612220FFF7B4
:100F7000ECFC00F095FD002403E0284600F09AFD0B
:100F8000641CB4F5963FF8D300F08FFD70BD70B5CA
:100F900004460D46A9B2C4F13F02D0B2FFF7B9FF33
:100FA0004FF480008549C8612220FFF7CEFC8448B9
:100FB0000088FFF7E0FC4FF480008049886170BD35
:100FC0007F49088070477F49088070472DE9F047C6
:100FD00004460D4616464FF00009C4F59874A9B2B0
:100FE0005020FFF7DEFC05F1170081B25120FFF71A
:100FF000D8FCA1B25220FFF7D4FC04F10F0081B25B
:101000005320FFF7CEFC00210846FFF782FF4FF484
:1010100080006A49C8612220FFF797FC00F040FD7C
:10102000C84616E00F270FE036F819100120B84027
:10103000014204D16348008800F03CFD03E06048B1
:10104000008800F037FD7F1E002FEDDAB61C08F196
:101050000108B8F1180FE5DB00F027FDBDE8F087C7
:101060002DE9F04105460E461446A4F12000C4B215
:1010700004EB4403544F07EB031205EB4503D9007F
:101080003001FFF7A3FFBDE8F08170B506460D46BD
:101090001446FFF72BFF06E014F8012B29466D1CC0
:1010A0003046FFF7DDFF20780028F5D170BD10B580
:1010B0000446FFF71BFF45A200212046FFF7E5FF8E
:1010C00010BD2DE9F04705460E4614469846DDF85A
:1010D0002090C5F5A070051BB1B25020FFF761FC50
:1010E00006F1170081B25120FFF75BFCA9B2522034
:1010F000FFF757FC2819401E81B25320FFF751FC1F
:1011000009FB04F04FEA902900210846FFF701FF90
:101110004FF480002949C8612220FFF716FC00F037
:10112000BFFC4FF0000A11E0671E0BE04F4504D3EF
:101130002448008800F0BEFC03E02148008800F04D
:10114000B9FC7F1E002FF1DA0AF1010AC245EBD388
:1011500000F0ABFCBDE8F0872DE9F05F05460E46D8
:1011600014469846DDF828B05F46C5F5A070051B0B
:10117000B1B25020FFF715FC06EB0800401E81B20B
:101180005120FFF70EFCA9B25220FFF70AFC2819E4
:10119000401E81B25320FFF704FCB1B22020FFF7BC
:1011A00000FCA9B22120FFF7FCFB4FF480000349AB
:1011B000C861222016E000001000001000C00920C5
:1011C0000A0000100C00001096390000202020209A
:1011D000202020202020202020202020202020200F
:1011E00000000000FFF7B1FB00F05AFC4FF0000ACE
:1011F00012E0601E07EB40074FF0000905E037F8EA
:10120000020900F057FC09F10109A145F7D3601C60
:1012100007EB40070AF1010AC245EAD300F045FC9A
:10122000BDE8F09F2DE9F05F04460E4615461F46C7
:10123000DDF82890C846C4F5A070441BB1B2502018
:10124000FFF7AFFBF019401E81B25120FFF7A9FB59
:10125000A1B25220FFF7A5FB6019401E81B25320B6
:10126000FFF79FFBB1B22020FFF79BFBA1B221202B
:10127000FFF797FB4FF48000FE49C8612220FFF77B
:1012800064FB00F00DFC07FB05F0401E08EB400876
:101290004FF0000B0CE04FF0000A05E038F80209AF
:1012A00000F008FC0AF1010AAA45F7D30BF1010B83
:1012B000BB45F0D300F0F9FBBDE8F09F10B522204C
:1012C000FFF743FB10BD10B50246012000E050437C
:1012D0000B00A1F10104E1B2F9D110BD70B50446D3
:1012E0000D46FFF703FEE0B22946FFF712FE4FF46A
:1012F0008000E049C8612220FFF727FB00F0D0FB07
:10130000DD48008800F0D6FB00F0CFFB70BD70B563
:1013100004460D46FFF7EAFDE0B22946FFF7F9FD66
:101320004FF48000D349C8612220FFF70EFB00F084
:10133000B7FBD248008800F0BDFB00F0B6FB70BDE3
:101340002DE9FF4F85B081468A4600200490039026
:101350000798A0EB09050898A0EB0A06CDF80890BD
:10136000CDF804A0002D01DD012705E00DB900270F
:1013700002E04FF0FF376D42002E02DD4FF0010812
:1013800006E016B94FF0000802E04FF0FF38764251
:10139000B54201DD2C4600E034464FF0000B21E061
:1013A000019A91B2029A90B2FFF7B1FF04982844D3
:1013B00004900398304403900498A04205DD0498FB
:1013C000001B04900298384402900398A04205DD67
:1013D0000398001B03900198404401900BF1010019
:1013E0001FFA80FB601C8345DADD09B0BDE8F08F91
:1013F0002DE9F04704460D4616461F46DDF82080CD
:10140000E819401E45EA002081B24420FFF7C9FADE
:1014100021464520FFF7C5FAA019401E81B246209B
:10142000FFF7BFFA29464E20FFF7BBFA21464F20AF
:10143000FFF7B7FA4FF480008E49C8612220FFF70A
:1014400084FA00F02DFB06FB07F902E0404600F0AD
:1014500031FB5FEA0900A9F10109F7D100F025FB92
:10146000BDE8F0872DE9F04104460D4616461F46BB
:10147000EA1991B2A21990B2FFF749FFEA1B91B2A3
:10148000A21B90B2FFF743FFEA1B91B2A21990B2E0
:10149000FFF73DFFEA1991B2A21B90B2FFF737FFA9
:1014A0007648B0F80080744800887449088005EBDD
:1014B000070C1FFA8CF3A4EB060C1FFA8CF205EB59
:1014C000070C1FFA8CF104EB060C1FFA8CF0FFF7E7
:1014D00037FFA5EB070C1FFA8CF3A4EB060C1FFAE1
:1014E0008CF2A5EB070C1FFA8CF104EB060C1FFA2B
:1014F0008CF0FFF725FF6148A0F80080BDE8F0817F
:101500002DE9FF4F91B04FF0000BDDF850A013997B
:1015100001FB01F001F0CAFB06460F46DDF850A0C2
:101520000AFB0AF001F0C2FB80468946149801F0DC
:10153000D4FB0022524BCDE90A0101F051FD3246A5
:101540003B46CDE90C0101F017FC42464B46CDE984
:101550000E0101F003FB04460D4653465A46DDE9F1
:101560001101FFF77FFF4BE000221346204629467A
:1015700001F0C6FB13D24FEA4B01C81C01F096FBE9
:1015800042464B46CDE90C0101F0F6FB22462B46C4
:10159000CDE90E0101F0E2FA04460D4628E04FEADB
:1015A0004A01C1F1020001F081FB32463B46CDE920
:1015B000080101F0E1FBCDE90C014FEA4B01C81C29
:1015C00001F074FB42464B46CDE9080101F0D4FB23
:1015D000CDE90A01DDE90C2301F0C0FA22462B46D1
:1015E000CDE90E0101F0BAFA04460D46AAF1010A4E
:1015F0000BF1010B53465A46DDE91101FFF732FFAB
:10160000504601F053FB00221E4BCDE9080101F0CA
:10161000D9FD32463B46CDE90A0101F0ADFBCDE9EB
:101620000E010BF1010001F041FB42464B46CDE9B2
:101630000A0101F0A1FBCDE90C01DDE90E2301F067
:101640005FFB91D3DDE913125143480001F02EFBFB
:10165000CDE90E01AAF10101139A5143480001F0AE
:1016600025FBCDE90A01584601F020FB0022054B7D
:101670000AE0000000C00920040000100E00001065
:101680000000D03F0000E03FCDE9000101F066FA24
:10169000CDE90401149801F020FBCDE90201DDE958
:1016A000042301F069FB00224FF08043CDE90601DD
:1016B00001F062FBCDE90801DDE90A2301F04EFAF1
:1016C000CDE90C01DDE90E2301F07CFD04460D4659
:1016D0004CE0002213462046294601F011FB29D296
:1016E0004FEA4A01C1F1030001F0E0FA32463B46FD
:1016F000CDE9080101F040FBCDE90C014FEA4B01B7
:10170000881C01F0D3FA42464B46CDE9080101F0AE
:1017100033FBCDE90A01DDE90C2301F01FFA224673
:101720002B46CDE90E0101F019FA04460D460BF1E6
:10173000010B13E04FEA4A01C1F1030001F0B6FAD0
:1017400032463B46CDE90C0101F016FB22462B4602
:10175000CDE90E0101F002FA04460D46AAF1010A94
:1017600053465A46DDE91101FFF77CFEBAF1000F3E
:10177000AFDC15B0BDE8F08F2DE9FF4F85B0914685
:101780009A460020049003901298A0EB0905139844
:10179000A0EB0A06CDF80890CDF804A0002D01DDDD
:1017A000012705E00DB9002702E04FF0FF376D4239
:1017B000002E02DD4FF0010806E016B94FF00008D8
:1017C00002E04FF0FF387642B54201DD2C4600E0E2
:1017D00034464FF0000B23E0019883B2029882B2A6
:1017E000DDE90501FFF7ACFD049828440490039857
:1017F000304403900498A04205DD0498001B049037
:101800000298384402900398A04205DD0398001B1B
:1018100003900198404401900BF101001FFA80FBF6
:10182000601C8345D8DD09B0BDE8F08F2DE9FC4789
:101830008046894614461D46DDE90A672B46224646
:1018400049464046FFF77CFD3B4632462946204646
:10185000FFF776FD3B46324649464046FFF770FDAE
:101860009C48B0F800A09C4800889A4908802B4604
:10187000224649464046CDE90067FFF77DFF95487F
:10188000A0F800A0BDE8FC872DE9F04705460F460B
:10189000164698463B46324639462846FFF750FDE5
:1018A00043462A4639462846FFF74AFD4346324614
:1018B00041462846FFF744FD434632463946304606
:1018C000FFF73EFD8348B0F80090834800888149C7
:1018D00008802C4607E04346224639462046FFF75B
:1018E0002FFD601CC4B2B442F5DD7A48A0F8009028
:1018F000BDE8F0872DE9F04706460F4690460024E4
:1019000045460320A0EB480994E03A1B91B2721BB4
:1019100090B2FFF7FCFC3A1B91B2721990B2FFF73C
:10192000F6FC7A1991B2321B90B2FFF7F0FC7A1BE9
:1019300091B2321B90B2FFF7EAFC3A1991B27219D8
:1019400090B2FFF7E4FC3A1991B2721B90B2FFF724
:10195000DEFC7A1B91B2321990B2FFF7D8FC7A19EB
:1019600091B2321990B2FFF7D2FC5A48B0F800A0F9
:101970005948008857490880A7EB040C1FFA8CF3DC
:1019800006EB050C1FFA8CF2A7EB040C1FFA8CF186
:10199000A6EB050C1FFA8CF0FFF7D2FCA7EB050CA9
:1019A0001FFA8CF3A6EB040C1FFA8CF207EB050C64
:1019B0001FFA8CF1A6EB040C1FFA8CF0FFF7C0FCA9
:1019C00007EB040C1FFA8CF3A6EB050C1FFA8CF244
:1019D00007EB040C1FFA8CF106EB050C1FFA8CF0D8
:1019E000FFF7AEFC07EB050C1FFA8CF306EB040CBB
:1019F0001FFA8CF2A7EB050C1FFA8CF106EB040C16
:101A00001FFA8CF0FFF79CFC3248A0F800A0641C81
:101A1000B9F1000F03DAA000801D814404E0601BCF
:101A200080000A3081446D1E7A1991B2321990B249
:101A3000FFF76DFCAC427FF768AFBDE8F08710B5EB
:101A400000244FF40000254988614000886140006F
:101A5000C86100BF0846006C20F0FF0008644FF426
:101A60000010C8618010C8613220FEF744FF1B4897
:101A7000406DC3B24FF40020184988613220FEF750
:101A80003AFF1648406D63F31F2003464FF40010E1
:101A90001249886100BF1C4600018861204610BDC4
:101AA0004FF400000D49886170474FF480000B49E6
:101AB0008861704710B504462046FEF722FF4FF0BC
:101AC00080700649C861FEF74FFB4FF080700349F4
:101AD000886110BD0E0000100400001000C0092035
:101AE0003EB5FE49C868FE4901F00EFE054601F00C
:101AF000A3FD0446E0B28DF80400200A8DF805002D
:101B0000200C8DF80600200E8DF80700082001AB90
:101B1000002201210090A02000F080FEEF4908691A
:101B2000EF4901F0F1FD054601F086FD0446E0B203
:101B30008DF80400200A8DF80500200C8DF80600B1
:101B4000200E8DF80700082001AB0246012100900D
:101B5000A02000F063FEE148B0F91440E0B28DF837
:101B60000400200A8DF80500082001AB1022012195
:101B70000090A02000F052FED848B0F91640E0B224
:101B80008DF80400200A8DF80500082001AB18220A
:101B900001210090A02000F041FEFF208DF80400FC
:101BA000012001AB202201460090A02000F036FE6B
:101BB0003EBDFEB5082001AB202201210090A020EF
:101BC00000F07EFE05469DF80400FF286CD100243D
:101BD00004E0002001A90855601CC4B2082CF8DB01
:101BE000082001AB002201210090A02000F068FE37
:101BF0009DF8070000069DF8061040EA01409DF898
:101C0000051040EA01209DF8041040EA010528462D
:101C100001F04EFD0646B24901F04CFCAF49C860E8
:101C2000082001AB024601210090A02000F048FEF0
:101C30009DF8070000069DF8061040EA01409DF857
:101C4000051040EA01209DF8041040EA01052846ED
:101C500001F02EFD0646A24901F02CFC9F490861C7
:101C6000082001AB102201210090A02000F028FEE6
:101C70009DF804009DF8051040EA012528B2974917
:101C80008882082001AB182201210090A02000F0DA
:101C900017FE9DF804009DF8051040EA012528B2C2
:101CA0008E49C8820120FEBD0020FCE700BF010074
:101CB000A0F10100FBD1704700B5034602E0F5201A
:101CC000FFF7F4FF1800A3F10103F8D100BD10B530
:101CD0000346002400BF18E013F0800F04D04FF437
:101CE00000708049886103E04FF400707D49C8614D
:101CF0005806030E80207B49C8610120FFF7D6FFFC
:101D0000802078498861601CC4B2082CE4DB10BDD7
:101D100070B506460025002480207249C861402025
:101D2000C8618020C8610A20FFF7C0FF3046FFF776
:101D3000CEFF0D20FFF7BAFF80206A49C86101205D
:101D4000FFF7B4FF00BF13E04FF6FF7000EA440452
:101D500080206449C8610120FFF7A8FF8020614905
:101D600088616148006808B1601C84B2681CC5B213
:101D7000102DE9DB241140205A498861204670BDAE
:101D80002DE9F04188B080460027002406E0404657
:101D9000FFF7BEFF2DF81400601C84B20F2CF6DB99
:101DA000002416E0601C85B20FE03DF814003DF8F9
:101DB0001510884207DD3DF814603DF815002DF838
:101DC00014002DF81560681C85B20F2DEDDB601C2A
:101DD00084B20E2CE6DB0027052405E03DF8140054
:101DE000384487B2601C84B20A2CF7DB052097FBCD
:101DF000F0F086B2304608B0BDE8F081F0B5044698
:101E00000D46D020FFF7BCFF06469020FFF7B8FF35
:101E10000746642E01DB642F01DA0020F0BD268026
:101E20002F800120FAE77FB504460D4602A903A8DA
:101E3000FFF7E4FF064616B9002004B070BD6946FE
:101E400001A8FFF7DBFF06460EB90020F5E7BDF855
:101E50000400BDF80C10884206DCBDF80C10BDF87B
:101E60000400323081420CDBBDF80C00BDF80410D8
:101E7000884240DCBDF80410BDF80C0032308142CD
:101E800039DABDF80000BDF80810884206DCBDF85C
:101E90000810BDF80000323081420CDBBDF80800AC
:101EA000BDF80010884226DCBDF80010BDF808001F
:101EB000323081421FDABDF80C10BDF804208818BA
:101EC00000EBD071C1F34F012180BDF80810BDF8BF
:101ED0000020881800EBD07108E0000030000010EE
:101EE00020BCBE4C00C00920A0023823C1F34F0122
:101EF00029800120A1E700209FE710B504461CB10E
:101F0000152000F02BFB08E0152001218140FE4A3E
:101F1000430942F8231000BF00BF10BD10B50024D4
:101F20000020FFF7EAFF0020F8490872891D881E8B
:101F3000FFF779FF04E0601CC4B20A20FFF7BCFE83
:101F4000F348006808B9FA2CF5DD0120FFF7D5FF4A
:101F5000FA2C01DB002010BD0120FCE770B504461F
:101F60000D46A4F10C0188B22B4604F10D0229465E
:101F7000FFF7E6F905F10D0083B2193881B2224668
:101F80002046FFF7DDF9681C81B2601CFFF7BFF93E
:101F90006A1C91B2621E90B2FFF7B9F9681E81B255
:101FA000601CFFF7B4F96A1E91B2621E90B2FFF78F
:101FB000AEF9062229462046FFF79CFC70BD70B59D
:101FC00004460D4629462046FFF7A1F92946601C24
:101FD000FFF79DF9681C81B22046FFF798F9681C4D
:101FE00081B2601CFFF793F970BD2DE9F041C7493C
:101FF000891D881EFFF717FF80B3C449B1F914008B
:1020000001F056FB0646C149888801F069FB074686
:10201000BE48C168384601F077FB0546314601F0FD
:10202000E7F9044601F024FBB8490880B1F916002D
:1020300001F03EFB0646B549C88801F051FB074652
:10204000B2480169384601F05FFB0546314601F0B0
:10205000CFF9044601F00CFBAC494880BDE8F081A3
:1020600010B54FF08060AB4908610820AA490860AC
:102070004FF00000A949C1F84C014FF0150000F0E5
:102080006DFA012010BD00B50120FFF70FFEA0483A
:10209000006810B901209D4908720820A049086015
:1020A00000BD2DE9F04F87B0002600BF4FF4784007
:1020B0009C4908804FF6FF709B490880FEF74AFF55
:1020C0004FF47840974908804FF6FF70FEF742FFC3
:1020D00014210846FFF742FF00208C490872C860AF
:1020E00008E28A48007A01287ED1FFF717FF58B12D
:1020F0008648808803A921F826008448C08801EB1F
:1021000086014880701CC6B2012E06D0022E0DD06A
:10211000032E15D0042E08D11CE04FF6FF70FEF7F9
:1021200019FF1421DC20FFF719FFE1E14FF6FF70E2
:10213000FEF710FF4FF496711420FFF70FFFD7E161
:102140004FF6FF70FEF706FF4FF49671DC20FFF7A5
:1021500005FFCDE1BDF80C10BDF81020881A01D4A0
:10216000014600E041420C46BDF80E20BDF81210B9
:10217000501A01D4014600E041420D4664436D43CC
:10218000601900F0AAFDCDE90001FEF752F80746FC
:10219000FEF782F81FFA80F9BDF81410BDF8182078
:1021A000881A01D4014600E041420C46BDF81620D1
:1021B000BDF81A10501A01D4014600E041420D4604
:1021C00064436D43601900F088FD0746FEF731F85F
:1021D000CDE90001FEF760F81FFA80FA504601F0E1
:1021E0007FFA0746484600E083E101F079FA80462D
:1021F000394601F05FF90290029801F0CDF80746E8
:102200004FF06632494B00F07BFD0ED3029801F08F
:10221000C3F80746464A474B00F0ACFE05D3B9F178
:10222000000F02D0BAF1000F09D100264FF6FF705F
:10223000FEF790FE14210846FFF790FE5AE1BDF824
:102240000C10BDF81420881A01D4014600E0414268
:102250000C46BDF80E20BDF81610501A01D40146E8
:1022600000E041420D4664436D43601900F035FDC6
:10227000CDE90001FDF7DDFF0746FEF70DF81FFA77
:1022800080F9BDF81010BDF81820881A01D4014655
:1022900000E041420C46BDF81220BDF81A10501A59
:1022A00001D4014600E041420D4664436D4360198C
:1022B00000F013FDCDE90001FDF7BBFF0746FDF778
:1022C000EBFF1FFA80FA504601F00AFA074648462B
:1022D00001F006FA8046394601F0ECF802900298C7
:1022E00001F05AF807464FF06632104B00F008FD37
:1022F00008D3029801F050F807460D4A0D4B00F044
:1023000039FE22D2002617E080E100E03000001004
:10231000B40A382300C0024048C10F4000C00F403B
:1023200040C10F4006000010080000106666EE3F36
:10233000CDCCCCCCCCCCF03F4FF6FF70FEF70AFEF4
:1023400014210846FFF70AFED4E0BDF81010BDF8CE
:102350001420881A01D4014600E041420C46BDF821
:102360001220BDF81610501A01D4014600E0414277
:102370000D4664436D43601900F0AFFC0746FDF75E
:1023800058FFCDE90001FDF787FF1FFA80F9BDF87E
:102390000C10BDF81820881A01D4014600E0414213
:1023A0000C46BDF80E20BDF81A10501A01D4014693
:1023B00000E041420D4664436D43601900F08DFC1E
:1023C0000746FDF736FFCDE90001FDF765FF1FFA6F
:1023D00080FA504601F084F90746484601F080F93A
:1023E0008046394601F066F80290029800F0D4FF6A
:1023F00007464FF066325F4B00F082FC08D302982C
:1024000000F0CAFF07465C4A5C4B00F0B3FD09D2FE
:1024100000264FF6FF70FEF79DFD14210846FFF7DA
:102420009DFD67E0BDF81010BDF80C20881A01F082
:102430003FF907463946524801F03CF85149C86017
:10244000BDF81010BDF80C20881801F031F901908A
:102450004C48C168019801F057F983464A4901F098
:102460001AFA80464FF0804101F024F8074601F047
:10247000E3F800B243498882BDF81610BDF80E207B
:10248000881A01F015F907463946404801F012F85C
:102490003C490861BDF81610BDF80E20881801F0FF
:1024A00007F9019037480169019801F02DF9834639
:1024B000374901F0F0F980464FF0804100F0FAFF13
:1024C000074601F0B9F800B22E49C8821F203149F1
:1024D00008804FF6FF70FEF73DFD42F21070FFF7E7
:1024E000EBFB4FF6FF70FEF735FD07B0BDE8F08F50
:1024F00000BF00BFF5E53EB52748006840F43070E6
:10250000254908600846006C08641E49891D881E1C
:10251000FFF774FCFFF7A4FD4FF6FF70FEF71AFDFE
:10252000012000F04EF908B900BFFEE7082001AB1A
:10253000202201210090A02000F0C2F904469DF85D
:102540000400FF2807D04FF6FF70FEF703FDFFF7EA
:10255000A8FDFFF7C5FAFFF72CFB3EBD00F01F02F8
:102560000121914042094FF0E02303EB8202C2F8BF
:10257000001170476666EE3FCDCCCCCCCCCCF03FA2
:1025800000004843300000100000704300008C43FE
:102590000000A0430600001000C0092010B5002173
:1025A0000BE0002205E0002300E05B1C642BFCD361
:1025B000521CB2F57A7FF6D3491C8142F1D310BD8B
:1025C00010B5EA48406800F0F80414F0070F70D125
:1025D000E0100C286DD2DFE800F0F1061920B721D9
:1025E000B8B9A8BAC1DEE2480078012806D1E148AE
:1025F000007800F0FE00DD49886003E0DD480078E7
:10260000DA4988602820D9498861D8E0D94800781B
:10261000D649886028208861D1E000BFD44800787E
:1026200000BBD5480068A8B1D44800680078CF49FD
:102630008860D2480068401CD04908602820CB49F7
:102640008861CD480068401ECB4908600120FFF733
:10265000A5FF07E01020C5490860282088610120F7
:10266000C7490870C248007801282FD1C5480078B2
:1026700002280DD1C4480068C0F30720BB49886018
:1026800028208861BF480078401EBE49087096E047
:10269000BC48007801280DD1BB480068C0B2B349DE
:1026A000886028208861B7480078401EB5490870C6
:1026B00085E083E0B348007840B90820AB498861E1
:1026C000202008600020AA49087078E0A848007817
:1026D000022829D1AB480078002825DDA9480078D8
:1026E00002280DD1A8480068C0F307209F498860E0
:1026F00028208861A3480078401EA24908705EE047
:10270000A048007801280FD19F480068C0B29749BF
:102710008860282088619B480078401E994908708D
:102720000020934908704AE049E093480068012876
:1027300003D804208D49886102E004208B49086099
:1027400028208A4988613AE000BF00BF00BF2820E6
:1027500086498861FF208A49087030E08348806894
:1027600086490968087085480068401C83490860EC
:1027700081480068401E80490860084600680128BA
:1027800003D12C207949886104E00420774908604E
:102790002820886113E075488068784909680870C6
:1027A00076480068401C7549086010206F49086031
:1027B0002820886101207249087000E000BF00BF36
:1027C00010BD10B501467148006840F40020704A01
:1027D000C2F8C4006F48406820F070706D4A5060C5
:1027E0001046406840F0A07050604FF080005F4A93
:1027F00050611061022901D1A020D0600A2001227D
:10280000824043094FF0E02404EB8303C3F8002126
:1028100000BF4020554A1060012010BD2DE9F04155
:1028200005460E4614461F46DDF81880B8F1000F25
:1028300041D0012E06D14F48057053480460012055
:1028400050490870022E06D14A4805704E4804606F
:1028500002204C490870032E0AD10E2000EAD41041
:1028600028444449087048480460012045490870DC
:10287000424807604048C0F8008002203C49087088
:1028800000203F4908702C2038498861602008608A
:1028900000BF3B4800780028FBD03948007828B1B9
:1028A0001420FFF77BFE0120BDE8F0811420FFF724
:1028B00075FE0020F8E71420FFF770FE0020F3E714
:1028C0002DE9F04105460E4614461F46DDF81880F6
:1028D000B8F1000F45D0012E07D1681C25490870BA
:1028E00029480460012027490870022E07D1681C7E
:1028F0002049087024480460022022490870032EF1
:102900000CD10E2000EAD4102844401C194908704C
:10291000E0B21D49086001201A4908701748076095
:102920001548C0F8008001201149087000201449A2
:1029300008702C200D4988616020086000BF104895
:1029400000780028FBD00E48007828B11420FFF74B
:1029500025FE0120BDE8F0811420FFF71FFE0020B6
:10296000F8E71420FFF71AFE0020F3E700C001404B
:102970002900001014000010240000102000001096
:10298000280000101C00001018000010C4C00F40E8
:1029900000C00F4000C0024030B56849096841F0EE
:1029A0001001664A11601146096841F0400111604A
:1029B0006349096841F00801624AC2F8C4104FF047
:1029C0008301614A11734FF00D0001464FEAE07236
:1029D00000EB12624FEA22225B4B1A714FEAE0725F
:1029E00000EB12624FEA2222A0EB02221A704FF093
:1029F00003011A4611734FF0870111724FF0010164
:102A000051604FF005014FF0010202FA01F24FEA66
:102A100051134FF0E02404EB8303C3F8002100BFFF
:102A20004FF00402002907DAD3061D0E474B01F0D0
:102A30000F04241F1D5503E0D3061C0E444B5C54A9
:102A400000BF30BD00BF4049097D11F0200FFAD012
:102A50003D490870704700BF3B48007D10F0010FF2
:102A6000FAD039480078704700B5024603E012F802
:102A7000010BFFF7E7FF10780028F8D100BD1CB567
:102A800002460A2092FBF0F100FB1120303080B2A8
:102A9000ADF806000A2092FBF0F00A2190FBF1F459
:102AA00001FB1400303080B2ADF80400642092FBCA
:102AB000F0F090FBF1F401FB1400303080B2ADF87F
:102AC00002004FF47A7092FBF0F090FBF1F401FBFE
:102AD0001400303080B2ADF80000002305E01DF88E
:102AE0001300FFF7AFFF581CC3B2042BF7DB1CBD6C
:102AF0000CB510200090144880680190019800F0F7
:102B00000F00022804D0042803D00C2812D101E0C1
:102B100011E000BF0C48007D10F0010F09D00A48F9
:102B200001780C4802680068401C0A4B18600A488B
:102B3000815400E000BF00BF0CBD000000C0024097
:102B4000C4C00F4000C00F4000C0004018ED00E0BE
:102B500000E400E02C0000104800001010B591EADD
:102B6000030F48BF83F0004300F13483841A71EBF4
:102B7000030C05D2121943EB0C03001B61EB0C0193
:102B8000DFF824E14FEA1154A4EB135C1EEA430F73
:102B900018BF9EEA445F73D023EA0E03DCF1200ED7
:102BA00021EA045143F4801332D322FA0CFE10EBD5
:102BB0000E0023FA0CFE41EB0E01CCF1200E03FABD
:102BC0000EFE10EB0E0051F10001B1F5801FCCF1AB
:102BD000200E32D201EB045112FA0EF2BDE8104081
:102BE00058BF7047401C38BF5FEA420218BF7047A9
:102BF000002814BF20F0010041F100014FEA410319
:102C000013F5001F38BF7047A1F1C04100F0ACB907
:102C1000012A43EB0302ACF1200CDCF11F0E32BFA2
:102C20004FF0000E23FA0CF310EB030041EB0451BC
:102C3000B4EB115FD0D0A1EB045101F5801149082C
:102C40005FEA300001EB04510ED350F1000038BFB1
:102C500012FA0EFE08D1BDE81040C9E7401C38BF8B
:102C60005FEA4202CAD1C3E7BDE810404FEA410320
:102C700013F5001F38BF7047A1F1C04100F074B9CF
:102C80009EEA445F08D011EA5E0FBDE8104004BF21
:102C900001F0004100207047BDE8104070B500F021
:102CA00015F900BF64FBBE3E0000E0FF10F00042DB
:102CB00048BF4042B0FA80F310FA03F10AD0C3F1E2
:102CC0001D0303F580634FEA415002EB035202EB10
:102CD000D12170474FF000007047B0FA80F310FA2E
:102CE00003F10AD0C3F11D0303F580634FEA41509D
:102CF0004FEA035202EBD12170474FF000007047BA
:102D000051EA030C17D41CF5801F58BFBCF5801F77
:102D100000F10680994218BF704708BF9042704783
:102D200007D711F5801F58BF13F5801F19D499429A
:102D30007047894270471CF5801F08D5BCF5801F7D
:102D4000F7D58B4218BF704708BF824270474FF4D7
:102D5000001C1CEB410F38BF1CEB430F01D28B4210
:102D6000704770B500F0B2F8922449004FF000515E
:102D70004FF08053FDF783BADFF848C170B51CEA05
:102D8000111E1EBF1CEA13159EEA0C0F95EA0C0FCC
:102D900000F06F8081EA030423EA4C134EEAD47EEC
:102DA00021EA4C1141F4801143F48013AE44A1FB9D
:102DB000024CA0FB0365AEF17F7E361955EB0C0586
:102DC000A1FB034C4CF10003A0FB021C16EB0C060C
:102DD000654153F10003094218BF46F0010613F4A0
:102DE000007F0BD14FEA03314FEA0530340341EA4B
:102DF000155140EA16506FF003020AE04FEAC32172
:102E00004FEAC520F40241EA555140EA56506FF0AE
:102E1000020202EB2E4201EB025585EACE710AD086
:102E20005FEA440C18BF24F0004450F1000041F167
:102E3000000120EAD47040F2FE7C624500D270BDF1
:102E4000A84214BF4FF080444FF04044002E08BF0A
:102E50000024BEF1806FA8BFA1F1C041BDE8704061
:102E600080F282804FF0000001F1C04101F000418A
:102E700070479EEA0C0F0CEA131518BF95EA0C0F69
:102E800006D04FF0000081EA030E0EF0004170BD45
:102E900000F01CF88900013E00F007B800F009B806
:102EA0004FEA430C5FEA5C5C08D081EA030100F062
:102EB0005BB84FEA410C5FEA5C5CF6D14FF0000072
:102EC000014970470000FF070000F87F0EF1020E75
:102ED0002EF0030E5EF8046B364205D4012A43EB54
:102EE000030515F5001F12D8012841EB010C1CF554
:102EF000001F0CD80ED14FEAD17C15F5001F0CEB4A
:102F00004C0C0CF1020C08BF4CEBD37C04E04FF0EE
:102F1000080C01E04FEAD37C0CEB4C0526FA05F6D1
:102F200006F00706B6F1040C06D20EEB860CBDE8DF
:102F300070404CF0010C6047DFE80CF0090B020216
:102F40004FF000414FF00000A1F5002170BD19467F
:102F50001046012851EB010418BFD4F5001484BFBA
:102F6000002001F0004170BD0808A0F500114FEAF3
:102F70003101704753EA010C17D41CF5801F58BF6C
:102F8000BCF5801F00F106808B4218BF704708BF58
:102F90008242704707D713F5801F58BF11F5801F75
:102FA00019D48B4270479B4270471CF5801F08D58F
:102FB000BCF5801FF7D5994218BF704708BF9042F3
:102FC00070474FF4001C1CEB430F38BF1CEB410F44
:102FD00001D2994270470FB40CBC03BCFFF7C1BECD
:102FE00091EA030F10B581F000413FF5BFAD83F0CA
:102FF000004300F0EFB800002DE9F04101F5801C1E
:10300000BCF5001FC0F2C3804FEA115C21EA0C51ED
:103010000CF1FD0C41F480115FEA5C0C0CF5C07CF6
:1030200001D3400049413DA4890241EA9051870201
:103030008E0E0A0CA45D04FB04F602FB06F6C6F134
:103040004046A4FB0662F60D46EA422606FB06F45D
:10305000A4FB01235242C3F1404338BF5B1EA6FBD1
:1030600002420024E6FB0324D20B42EA4446A6FBBC
:103070000623A1FB02E2A3FB07E4A4184FF0000221
:1030800052F10002E3FB01426442C2F1404E38BFFC
:10309000AEF1010EA6FB04234FF00002E6FB0E3258
:1030A000A2FB03464FF00004B61954F10004E2FB02
:1030B0000264A1FB06E6A4FB07E816EB08064FF046
:1030C000000858F10008E4FB01687642C8F1405856
:1030D00038BFA8F10108A2FB06E4A3FB08E52D19FF
:1030E0004FF0000454F10004E2FB0854A1FB05E694
:1030F000A7FB04E818EB06084FF0000656F100069F
:10310000E1FB048618F1200556F10006A809A8F194
:103110001B08B10908F03F08B8F10A0F40EA8660C1
:103120001CD901EB0C51BDE8F08100BFFCF5EEE8C5
:10313000E2DDD8D3CFCBC7C3C0BDB9B6B4B1AEAC56
:10314000A9A7A5A3A19F9D9B9A9896959392908FCE
:103150008D8C8B898887868584838281A0FB00681B
:1031600000FB01F208EB4208B8EB872807D53418BA
:1031700058EB0104D5D5401C51F10001D1E7341AB8
:1031800078EB0104CDD4401E71F10001C9E75FEA7C
:103190004C0C5FEA9C5C0DD105D34FF0000001F0B0
:1031A0000041BDE8F081BDE8F04170B5FFF78EFE4B
:1031B0006DDBFFBEBDE8F0414FF0000000497047F5
:1031C0000000F87F10B591EA030F48BF83F0004379
:1031D0003FF5CCAC841A71EB030C07D212198CF0BA
:1031E000004C43EB0C03001B61EB0C01DFF8A4E186
:1031F0004FEA1154A4EB135C1EEA430F18BF9EEA7A
:10320000445F00F0B08023EA6E03524221EA045189
:10321000C3EB6E0338BF5B1EDCF1200E25D322FA10
:103220000CFE10EB0E0043FA0CFE41EB0E01CCF14C
:10323000200E03FA0EFE10EB0E0051F10001CCF14E
:10324000200E29D412FA0EF201EB0451BDE8104011
:1032500058BF7047401C1CBFB2F1004F7047002898
:103260000CBF491C20F00100704712EB020E43EB2B
:10327000030218BF4FF0010E4EEA4202ACF1200CDF
:10328000DCF11E0E54D943FA0CFE10EB0E0051F186
:10329000FF31CCF11E0ED5D50EF1010E12FA0EFE45
:1032A000404141EB010101EB445C5FEA5C5C10D9F9
:1032B00010EBDE7001EB045138BFBEF1004FBDE8EA
:1032C000104018BF704700280CBF491C20F00100B7
:1032D000704730D24FEAD42C11F5001124F4006469
:1032E0001BD0B1FA81F20B3AA41AA41ED2F120032A
:1032F000914030FA03F31943904001EBCC71002C5C
:1033000001EB0451BDE81040A8BF704701F1C04176
:103310004FF0000001F000417047B0FA80F310FA5E
:1033200003F100D110BDE41A173C4805C90AE4E7CF
:1033300001EB045110BD491001EB0451BDE81040F0
:103340004FEA300002E04FF0000170474A0008BF2A
:103350000042F8D0B2F5001F28BF704701F00041CD
:103360004FF0000070479EEA445F07D011EA5E0FFD
:10337000BDE8104004BF002100207047BDE81040A8
:1033800070B5FFF7A3FD00BF40DFF63E83F00041BC
:10339000104670470000E0FF43004FEAD30C4FEAAD
:1033A0003C0C43401FBF40070CF1605113F0FE4F2F
:1033B00070471CF0006F03D100200CF000417047F3
:1033C0000CF0004343EA507010B540EACC0000F026
:1033D0001CFA00BF000000924FEA0001FFF7C4BDD5
:1033E0004FF000414FF00000A1F5002170470000B0
:1033F00090EA010F48BF81F0004100F15E82421A5D
:103400003CBF801A89184FEAD0524FF07F4C1CEA1B
:10341000410FA2EBD15318BF9CEA026F00F03B8032
:103420004FF0004C4CEA00204CEA012121FA03FC49
:1034300010EB0C0C1ED202F1FF325FEA1C2040EBB5
:10344000C25038BF70471CF07F0F4FEA400C18BFC6
:10345000BCF17F4F38BF7047C3F12003994008BFCC
:1034600020F00100BCF17F4F38BF7047A0F1C04091
:10347000FCF73FBF4FEA3C00000A40EBC25028BFB8
:103480001CF0FF0F4FEA400CE6D018BFBCF17F4F95
:1034900038BF7047EAE79CEA026F05D010EA5C0F7C
:1034A00008BF00F00040704710B500F0AEF900BF53
:1034B00064FBBE3E4FF47F0C1CEAD0121EBF1CEA18
:1034C000D11392EA0C0F93EA0C0F00F0858090EA7A
:1034D000010F48BF42F4807240F4000C41F4000038
:1034E0002CF07F4120F07F4000B58142A2EB030227
:1034F0000FF2081CACEB504EC0F100009EF800E04B
:103500004FEA4E0E00FB0EFC38BF49004FEA2C1C60
:1035100002F5FA020CFB0EF34FEACE1E4FEA112C15
:103520004FEAC1210EEB635E42EB22420EFB0CFC24
:103530004FEA1C5300FB03114FEA112C4FEA0131F3
:103540000EFB0CFC4FEADC4C00FB0C11C14228BF07
:1035500009184CEB03335DF804EB10EB410143EB2E
:10356000C250B2F57C0F38BF704729D512F0F00F6A
:103570001CBF00F1C04000F0004070470081828312
:103580008485868788898B8C8D8E8F919293959672
:1035900097999A9C9D9FA0A2A3A5A7A8AAACAEB0FC
:1035A000B2B3B5B7B9BCBEC0C2C5C7C9CCCED1D401
:1035B000D7D9DCDFE2E6E9ECF0F3F7FAFE00000031
:1035C0004FEA400C0CF1807CBCF17E4F28BF704765
:1035D000B0F1C040FCF78DBE90EA010F0CEAD113A8
:1035E00048BF42F48072624538BF634507D213F486
:1035F0007F0F16D080EA010000F00040704710B540
:1036000000F003F9097EFC3E00F005B880EA0100F5
:1036100000F00040704780EA010000F00040FCF735
:1036200068BE12F47F0F04BF0248704780EA0100B1
:10363000FCF75FBE0000C07F41000B0ED3F19E027D
:1036400008D950F400034FEA032323FA02F048BFDD
:103650004042704710B500F0D8F800BF499224806E
:10366000002070476FF0004282EA2000704700009F
:10367000C10DD1F19E0206DB4FEA002343F0004367
:1036800023FA02F07047004207D54FEA4001B1F13A
:10369000FE4F02D24FF00000704710B500F0B5F8B1
:1036A00049922480002070476FEA20007047000094
:1036B00010F0004148BF4042B0FA80F310FA03F224
:1036C000C3F19D030BD051EAC35101EB1220530605
:1036D00038BF704700F1010008BF20F001007047BB
:1036E000B0FA80F310FA03F2C3F19D030AD0D905B2
:1036F00001EB1220530638BF704700F1010008BFEC
:1037000020F00100704700004FF47F0C1CEAD0123B
:103710001EBF1CEAD11392EA0C0F93EA0C0F00F0C3
:10372000478090EA010F48BF42F480724FF0004C8E
:103730004CEA00204CEA012102EB0302A0FB01133A
:10374000A2F50002002918BF43F001035B0028BF67
:103750004FEA330342EB22425FEA132C4CEBC25098
:103760002EBFBCEB436FB2F57C0F70474FEA036C82
:10377000BCF1004F08BF20F00100B2F57C0F38BF4C
:1037800070470BD582F0FF0212F5803FC8BF70472B
:1037900000F1C040D8BF00F00040704700F5000CB9
:1037A0005FEA4C0C48BF7047B0F1C040FCF7A1BDC8
:1037B00090EA010F0CEAD11348BF42F480726245CF
:1037C00038BF634504D280EA010000F00040704732
:1037D00010B500F01AF800BF8900013E00F007B8EC
:1037E00000F009B85FEA410C5FEA1C6C08D080EA7F
:1037F0000100FCF77EBD5FEA400C5FEA1C6CF6D16D
:103800004FF00040A0F5800070470EF1020E2EF040
:10381000030E5EF8044B244204D44FEA4102B2F195
:103820007F4F11D84FEA4003B3F17F4F0CD80ED130
:103830004FEAD07CB2F17F4F0CEB4C0C0CF1020C38
:1038400008BF4CEBD17C04E04FF0080C01E04FEADC
:10385000D17C0CEB4C0324FA03F404F00704B4F11C
:10386000040C06D20EEB840CBDE810404CF0010CA9
:103870006047DFE80CF0070802024FF00040A0F5B7
:10388000800010BD0846420018BFD2F1807288BF88
:1038900000F0004010BD80F0004090EA010F7FF57D
:1038A000AEAD81F0004100F008B8000090EA010FD1
:1038B00048BF81F000413FF5A2AD421A04D882F022
:1038C0000042A0EB020011444FEAD0524FF07F4C6F
:1038D0001CEA410FA2EBD15318BF9CEA026F4AD0F9
:1038E0004FF0004C4CEA00204CEA012121FA03FC85
:1038F000B0EB0C0C0FD412F0FE0F36D05FEA4C0088
:103900001DD5001240EBC25038BF70471CF03F0F6E
:1039100018BF70470BE0A2F101025FEA1C2040EBE8
:10392000C25038BF70471CF07F0F18BF7047C3F1FB
:103930002003994014BF401E20F00100704780080A
:103940004FEA122308BF7047B0FA80FCA2EB0C02CA
:10395000CCF1280C60FA0CF093EA122F04BF00EBB4
:10396000C25070474FEAC3707047130A5FEADC1019
:1039700008BF7047F6E79CEA026F04D010EA5C0FBC
:1039800008BF0020704710B5FFF73FFF40DFF63E4D
:1039900081F00040704700000000000000000000BF
:1039A0000000000000000000000000000000000017
:1039B0000000000000000000000000000000000007
:1039C00000000000000000008001800180018001F3
:1039D00080018001800180018001800180018001DF
:1039E0008001000000008001800100000000000054
:1039F00000000000000000000000CC00CC00CC0063
:103A0000CC00CC00CC000000000000000000000052
:103A100000000000000000000000000000000000A6
:103A20000000000000000000000000000000000096
:103A30000000600C600C600C30063006FE1FFE1F9C
:103A4000300638071803FE1FFE1F180318038C01E9
:103A50008C018C01000000008000E003F80F9C0E38
:103A60008C1C8C188C009800F801E007800E801CDC
:103A70008C188C189C18B80CF00FE00380008000A4
:103A80000000000000000000000000000E181B0CE9
:103A9000110C11061106110311039B018E01C03890
:103AA000C06C60446044304430441844186C0C3896
:103AB0000000000000000000E001F00338071806D5
:103AC00018063003F001F000F8009C310E33061E9A
:103AD000061C061C063FFC73F021000000000000DD
:103AE000000000000000000000000C000C000C00B2
:103AF0000C000C000C0000000000000000000000A2
:103B000000000000000000000000000000000000B5
:103B10000000000000000000000200038001C0005F
:103B2000C000600060003000300030003000300025
:103B300030003000300060006000C000C000800134
:103B4000000300020000000020006000C0008001AF
:103B500080010003000300060006000600060006C0
:103B60000006000600060003000380018001C0007B
:103B700060002000000000000000000000000000C5
:103B80000000C000C000D806F807E0013003380785
:103B90000000000000000000000000000000000025
:103BA0000000000000000000000000000000000015
:103BB000000080018001800180018001FC3FFC3F0A
:103BC0008001800180018001800100000000000070
:103BD00000000000000000000000000000000000E5
:103BE00000000000000000000000000000000000D5
:103BF00000000000000000008001800100010001C1
:103C00008000000000000000000000000000000034
:103C10000000000000000000000000000000E007BD
:103C2000E0070000000000000000000000000000AD
:103C30000000000000000000000000000000000084
:103C40000000000000000000000000000000000074
:103C50000000000000000000C000C00000000000E4
:103C60000000000000000000000C000C0006000630
:103C7000000600030003000380038001800180012F
:103C8000C000C000C0006000600000000000000034
:103C90000000000000000000E003F007380E180CE0
:103CA0000C180C180C180C180C180C180C180C18F4
:103CB0000C18180C380EF007E0030000000000009C
:103CC000000000000000000000018001C001F001C0
:103CD00098018801800180018001800180018001BC
:103CE000800180018001800180010000000000004F
:103CF0000000000000000000E003F80F180C0C1892
:103D00000C1800180018000C000600038001C00009
:103D1000600030001800FC1FFC1F000000000000C5
:103D20000000000000000000E001F807180E0C0C75
:103D30000C0C000C0006C003C007000C0018001893
:103D40000C180C18180CF807E00300000000000025
:103D50000000000000000000000C000E000F000F2B
:103D6000800DC00C600C600C300C180C0C0CFC3F6F
:103D7000FC3F000C000C000C000C000000000000D8
:103D80000000000000000000F80FF80F18001800F5
:103D90000C00EC03FC071C0E001C00180018001897
:103DA0000C181C0C180EF807E003000000000000BF
:103DB0000000000000000000C007F00F381C1818B9
:103DC00018000C00CC03EC0F3C0E1C1C0C180C183B
:103DD0000C18181C380EF007E0030000000000006B
:103DE0000000000000000000FC1FFC1F000C00068B
:103DF0000006000380038001C001C000E0006000F5
:103E00006000700030003000300000000000000052
:103E10000000000000000000E003F007380E180C5E
:103E2000180C180C3806F007F007180C0C180C18B2
:103E30000C180C18380CF80FE0030000000000000C
:103E40000000000000000000E003F007380E1C0C2A
:103E50000C180C180C181C1C381EF81BE019001844
:103E6000000C000C1C0EF807F00100000000000020
:103E70000000000000000000000000000000000042
:103E80000000800180010000000000000000000030
:103E90000000000000008001800100000000000020
:103EA0000000000000000000000000000000000012
:103EB0000000800180010000000000000000000000
:103EC000000000000000800180010001000180006E
:103ED00000000000000000000000000000000000E2
:103EE0000000000000000010001C800FE003F8003C
:103EF0001800F800E003800F001C00100000000014
:103F000000000000000000000000000000000000B1
:103F1000000000000000F81F000000000000F81F73
:103F20000000000000000000000000000000000091
:103F30000000000000000000000000000000000081
:103F400000000000000008003800F001C007001F5A
:103F50000018001FC007F001380008000000000032
:103F60000000000000000000E003F80F180C0C181F
:103F70000C180018000C000600038001C000C000EF
:103F8000C00000000000C000C000000000000000F1
:103F900000000000000000000000E00718180420E6
:103FA000C229224A1144094409440944092211132F
:103FB000E20C024004201818E00700000000000096
:103FC000000000000000000080038003C006C0065F
:103FD000C006600C600C301830183018F83FF83FFD
:103FE0001C700C600C6006C006C0000000000000E1
:103FF0000000000000000000FC03FC0F0C0C0C187B
:104000000C180C180C0CFC07FC0F0C180C300C30A6
:104010000C300C300C18FC1FFC07000000000000E6
:104020000000000000000000C007F01F38381C30FE
:104030000C7006600600060006000600060006007A
:1040400006600C701C30F01FE0070000000000004C
:104050000000000000000000FE03FE0F060E061820
:1040600006180630063006300630063006300630B8
:1040700006180618060EFE0FFE03000000000000E2
:104080000000000000000000FC3FFC3F0C000C00A2
:104090000C000C000C00FC1FFC1F0C000C000C00A2
:1040A0000C000C000C00FC3FFC3F00000000000076
:1040B0000000000000000000F83FF83F1800180062
:1040C000180018001800F81FF81F18001800180032
:1040D0001800180018001800180000000000000068
:1040E0000000000000000000E00FF83F3C780E6088
:1040F00006E007C00300030003FE03FE03C007C081
:1041000006C00EC03CF0F83FE00F000000000000C9
:1041100000000000000000000C300C300C300C30AF
:104120000C300C300C30FC3FFC3F0C300C300C30B1
:104130000C300C300C300C300C3000000000000053
:10414000000000000000000080018001800180016B
:104150008001800180018001800180018001800157
:1041600080018001800180018001000000000000CA
:104170000000000000000000000600060006000627
:1041800000060006000600060006000600060006FF
:10419000180618063807F003E001000000000000D0
:1041A000000000000000000006300618060C06069D
:1041B00006038601C60066007600DE008E01060357
:1041C0000606060C06180630066000000000000017
:1041D000000000000000000018001800180018007F
:1041E000180018001800180018001800180018000F
:1041F000180018001800F81FF81F00000000000049
:1042000000000000000000000EE01EF01EF01EF096
:1042100036D836D836D836D866CC66CC66CCC6C644
:10422000C6C6C6C6C6C686C386C300000000000058
:1042300000000000000000000C301C303C303C301E
:104240006C306C30CC30CC308C310C330C330C36C1
:104250000C360C3C0C3C0C380C300000000000000C
:104260000000000000000000E007F81F1C380E707E
:10427000066003C003C003C003C003C003C003C083
:1042800006600E701C38F81FE007000000000000F8
:104290000000000000000000FC0FFC1F0C380C3078
:1042A0000C300C300C300C18FC1FFC070C000C0000
:1042B0000C000C000C000C000C00000000000000C2
:1042C0000000000000000000E007F81F1C380E701E
:1042D000066003E003C003C003C003C003C007E0DF
:1042E00006630E3F1C3CF83FE0F700C000000000F2
:1042F0000000000000000000FE0FFE1F0638063020
:10430000063006300638FE1FFE0706030606060CBA
:10431000061806180630063006600000000000008F
:104320000000000000000000E003F80F1C0C0C1857
:104330000C180C001C00F803E00F001E00380630BB
:1043400006300E301C1CF80FE007000000000000D3
:104350000000000000000000FE7FFE7F8001800161
:104360008001800180018001800180018001800145
:1043700080018001800180018001000000000000B8
:1043800000000000000000000C300C300C300C303D
:104390000C300C300C300C300C300C300C300C303D
:1043A0000C300C301818F81FE00700000000000067
:1043B00000000000000000000360063006300630F8
:1043C0000C180C180C18180C180C380E3006300687
:1043D000700760036003C001C0010000000000001E
:1043E00000000000000000000360C361C361C361FE
:1043F0006633663366336633663366336C1B6C1B19
:104400006C1B2C1A3C1E380E380E000000000000F9
:1044100000000000000000000FE00C7018303018A1
:10442000700C600EC00780038003C003E006700CB0
:10443000301C18180C300E6007E00000000000006F
:10444000000000000000000003C006600C301C38B3
:104450003818300C6006E007C0038001800180013D
:1044600080018001800180018001000000000000C7
:104470000000000000000000FC7FFC7F00600030B6
:104480000018000C000600038001C000600030002E
:1044900018000C000600FE7FFE7F000000000000F8
:1044A0000000000000000000E003E0036000600086
:1044B00060006000600060006000600060006000FC
:1044C00060006000600060006000600060006000EC
:1044D000E003E003000000003000300060006000F6
:1044E0006000C000C000C000C001800180018001E8
:1044F00000030003000300060006000000000000A7
:104500000000000000000000E003E00300030003DF
:104510000003000300030003000300030003000383
:104520000003000300030003000300030003000373
:10453000E003E003000000000000C001C0016003D0
:104540006003600330063006180C180C00000000F1
:10455000000000000000000000000000000000005B
:10456000000000000000000000000000000000004B
:10457000000000000000000000000000000000003B
:104580000000000000000000FFFFFFFF000000002F
:1045900000000000000000000C000C000C000C00EB
:1045A0000C000C00000000000000000000000000F3
:1045B00000000000000000000000000000000000FB
:1045C00000000000000000000000000000000000EB
:1045D0000000F003F8071C0C0C0C000FF00FF80C97
:1045E0000C0C0C0C1C0FF80FF01800000000000061
:1045F000000000000000000018001800180018005B
:104600001800D803F80F380C1818181818181818AC
:1046100018181818380CF80FD80300000000000014
:10462000000000000000000000000000000000008A
:104630000000C003F007300E180C18001800180016
:104640001800180C300EF007C00300000000000036
:1046500000000000000000000018001800180018FA
:104660000018C01BF01F301C18181818181818183C
:1046700018181818301CF01FC01B000000000000A4
:10468000000000000000000000000000000000002A
:104690000000C003F00F300C1818F81FF81F1800A6
:1046A00018003818301CF00FC00700000000000090
:1046B0000000000000000000800FC00FC000C0001C
:1046C000C000F007F007C000C000C000C000C0007C
:1046D000C000C000C000C000C0000000000000001A
:1046E00000000000000000000000000000000000CA
:1046F0000000E00DF80F180E0C0C0C0C0C0C0C0C40
:104700000C0C0C0C180EF80FE00D000C0C0C1C0619
:10471000F807F00100000000180018001800180049
:104720001800D807F80F381C181818181818181877
:104730001818181818181818181800000000000089
:104740000000000000000000C000C00000000000E9
:104750000000C000C000C000C000C000C000C00019
:10476000C000C000C000C000C00000000000000089
:104770000000000000000000C000C00000000000B9
:104780000000C000C000C000C000C000C000C000E9
:10479000C000C000C000C000C000C000C000C00019
:1047A000F8007800000000000C000C000C000C0069
:1047B0000C000C0C0C060C038C01CC006C00FC00F3
:1047C0009C018C030C030C060C0C00000000000084
:1047D0000000000000000000C000C000C000C000D9
:1047E000C000C000C000C000C000C000C000C000C9
:1047F000C000C000C000C000C000000000000000F9
:1048000000000000000000000000000000000000A8
:1048100000007C3CFF7EC7E383C183C183C183C1A9
:1048200083C183C183C183C183C100000000000034
:104830000000000000000000000000000000000078
:1048400000009807F80F381C1818181818181818AE
:104850001818181818181818181800000000000068
:104860000000000000000000000000000000000048
:104870000000C003F00F300C18181818181818187A
:1048800018181818300CF00FC003000000000000CA
:104890000000000000000000000000000000000018
:1048A0000000D803F80F380C181818181818181822
:1048B00018181818380CF80FD8031800180018002A
:1048C00018001800000000000000000000000000B8
:1048D0000000C01BF01F301C1818181818181818E2
:1048E00018181818301CF01FC01B001800180018EA
:1048F0000018001800000000000000000000000088
:104900000000B007F00370003000300030003000CD
:1049100030003000300030003000000000000000A7
:104920000000000000000000000000000000000087
:104930000000E003F003380E180C3800F003C00745
:10494000000C180C380EF007E00300000000000017
:10495000000000000000000000008000C000C00057
:10496000C000F007F007C000C000C000C000C000D9
:10497000C000C000C000C0078007000000000000A9
:104980000000000000000000000000000000000027
:1049900000001818181818181818181818181818C7
:1049A00018181818381CF01FE0190000000000004B
:1049B00000000000000000000000000000000000F7
:1049C00000000C18180C180C180C300630063006B5
:1049D000600360036003C001C0010000000000002C
:1049E00000000000000000000000000000000000C7
:1049F0000000C141C141C3616363636363633636D1
:104A0000363636361C1C1C1C1C1C00000000000026
:104A10000000000000000000000000000000000096
:104A200000001C38381C300C6006C003C003C003F3
:104A3000C0036006300C381C1C3800000000000069
:104A40000000000000000000000000000000000066
:104A500000001830301830187018600C600CE00C32
:104A6000C006C00680038003800380018001C0016E
:104A7000F0007000000000000000000000000000D6
:104A80000000FC1FFC1F000C000600038001C0009A
:104A9000600030001800FC1FFC1F00000000000038
:104AA000000000000000000000038001C000C00002
:104AB000C000C000C000C0006000600030006000A6
:104AC0004000C000C000C000C000C000C0008001A5
:104AD00000030000000000008001800180018001CF
:104AE00080018001800180018001800180018001BE
:104AF00080018001800180018001800180018001AE
:104B000080018001000000006000C000C001800141
:104B10008001800180018001000300030006000382
:104B20000001800180018001800180018001C000BE
:104B30006000000000000000000000000000000015
:104B4000000000000000F010F81F080F0000000037
:104B50000000000000000000000000000000000055
:104B60000000000000000000000000000000000045
:104B70000000000000000000000000000000000035
:104B80000000000000000000000000000000000025
:104B90000000000000000000000000000000000015
:104BA000C003300C081004200420024002400240E0
:104BB00002400240042004200810300CC003000012
:104BC00000000000000000000000000000000000E5
:104BD000C003F00FF81FFC3FFC3FFE7FFE7FFE7F0F
:104BE000FE7FFE7FFC3FFC3FF81FF00FC00300007C
:104BF00000000000000000000000000000000000B5
:104C000000000000E007F00F1818181818181818FE
:104C100018181818F00FE00700000000000000004E
:104C20000000000000000000000000000000000084
:104C300000000000E007F00FF81FF81FF81FF81F32
:104C4000F81FF81FF00FE007000000000000000050
:104C50000000000000000000000000000000000054
:104C600000000000000000000000000000008001C3
:104C7000C0036006300C18181818F81FF81F000041
:104C80000000000000000000000000000000000024
:104C90000000000000000000000000000000800193
:104CA000C003E007F00FF81FF81FF81FF81F0000FF
:104CB0000000000000000000000000000000F81FDD
:104CC000F81F18181818300C6006C0038001000087
:104CD00000000000000000000000000000000000D4
:104CE0000000000000000000000000000000F81FAD
:104CF000F81FF81FF81FF00FE007C0038001000045
:104D000000000000000000000000000000000000A3
:104D10000000000000000000000000000000000093
:104D200000000000E001F00198018C01860186017D
:104D30008C019801F001E00100000000000000007B
:104D40000000000000000000000000000000000063
:104D500000000000E001F001F801FC01FE01FE018D
:104D6000FC01F801F001E00100000000000000007B
:104D70000000000000000000000000000000000033
:104D8000000000008007800F801980318061806101
:104D900080318019800F80070000000000000000B3
:104DA0000000000000000000000000000000000003
:104DB000000000008007800F801F803F807F807F81
:104DC000803F801F800F800700000000000000006F
:104DD0000000000000000000C0012002200240018D
:104DE000300608080808080808080808080808081D
:104DF00020022002200220022002200220022002A3
:104E00002002200200000000C001E003E003C00116
:104E1000F007D80DD80DD80DD80DD80DD80DD80D58
:104E2000600360036003600360036003600360036A
:104E30006003600300000000C00120022002400166
:104E40003006080808080808041002200220400163
:104E5000200220021004080808080410041004208E
:104E60000440000000000000C001E003E003C001B6
:104E7000F007D80DD80DD80DCC19C631C261C001CC
:104E8000600360037006380C180C0C180C180C30FA
:104E90000C600000000000000000000000000000A6
:104EA00000000000040404040404000400000014D2
:104EB0000A0A0000000000000000000014143F1463
:104EC0000A3F0A0A000000041E1505060C14150FFF
:104ED0000400000012150D0A142C2A120000000014
:104EE000040A0A1E1515093600000002020100001E
:104EF0000000000000000020100808080808081042
:104F00002000000204080808080808040200000045
:104F10000004150E0E150400000000000404041F18
:104F20000404040000000000000000000000000273
:104F3000020100000000001F00000000000000004F
:104F40000000000000000002000000100808080433
:104F500004020202010000000E1111111111110EC4
:104F600000000000040604040404040E0000000015
:104F70000E1111080402011F000000000E11100C98
:104F80001010110E00000000080C0A0A091E081873
:104F9000000000001F01010F1010110E00000000A2
:104FA0000E09010F1111110E000000001F09080465
:104FB00004040404000000000E11110E1111110E62
:104FC000000000000E1111111E10120E0000000052
:104FD00000000400000000040000000000000004C5
:104FE000000000040400002010080402040810203F
:104FF0000000000000001F00001F00000000000271
:105000000408102010080402000000000E1111080E
:1050100004040004000000000E111915151D011EE6
:105020000000000004040C0A0A1E123300000000F5
:105030000F12120E1212120F000000001E110101B9
:105040000101110E000000000F1212121212120FB5
:10505000000000001F120A0E0A02121F00000000CA
:105060001F120A0E0A020207000000001C120101B2
:105070003911120C000000003312121E12121233EA
:10508000000000001F0404040404041F00000000CA
:105090003E080808080808090700000037120A0639
:1050A0000A0A123700000000070202020202223F31
:1050B000000000001B1B1B1B151515150000000030
:1050C0003B1216161A1A1217000000000E111111C9
:1050D0001111110E000000000F12120E0202020741
:1050E000000000000E1111111117190E1800000018
:1050F0000F12120E0A121237000000001E110106D4
:105100000810110F000000001F1504040404040E11
:1051100000000000331212121212120C00000000E4
:105120003312120A0A0C0404000000001515150EB3
:105130000A0A0A0A000000001B0A0A04040A0A1BE1
:10514000000000001B0A0A040404040E0000000012
:105150001F0908040402121F0000001C04040404B8
:10516000040404041C0000020202040408080810DD
:105170000000000E08080808080808080E000004CF
:105180000A00000000000000000000000000000015
:1051900000000000003F00040000000000000000CC
:1051A000000000000000000C121C123C0000000077
:1051B0000302020E1212120E000000000000001C7A
:1051C0001202021C000000001810101C1212123CE7
:1051D000000000000000000C121E021C0000000075
:1051E0003804041E0404041E000000000000003CFB
:1051F000120C021E221C00000302020E12121237B1
:1052000000000000040000060404040E000000007A
:105210000800000C08080808080700000302023A0A
:105220000A0E123700000000070404040404041FDF
:10523000000000000000000F15151515000000000B
:105240000000000F12121237000000000000000CD6
:105250001212120C000000000000000F1212120EB9
:10526000020700000000001C1212121C103800007F
:105270000000001B06020207000000000000001EE4
:10528000020C101E000000000004040E04040418A8
:10529000000000000000001B1212123C0000000081
:1052A00000000037120A0C04000000000000001586
:1052B000150E0A0A000000000000001B0A040A1B69
:1052C0000000000000000037120A0C040403000074
:1052D0000000001E0804041E00000018080808044E
:1052E0000808080818000808080808080808080836
:1052F0000808000604040408040404040600022547
:105300001800000000000000000000000000000085
:105310000000000000000000000000000008080875
:105320000808080800001818000000486C24120043
:105330000000000000000000000000000024242401
:105340007F1212127F12121200000000081C2A2A7B
:105350000A0C1828282A2A1C0808000000222515F3
:1053600015152A585454542200000000000C121243
:10537000120A76252911916E00000006060403002A
:105380000000000000000000000000402010100895
:10539000080808080810102040000002040808103F
:1053A0001010101010080804020000000000080887
:1053B0006B1C1C6B080800000000000000000808BF
:1053C00008087F080808080000000000000000002E
:1053D00000000000000006060403000000000000BA
:1053E0000000FE00000000000000000000000000BF
:1053F0000000000000000606000000008040402081
:1054000020101008080404020200000000182442C2
:1054100042424242424224180000000000080E08A6
:10542000080808080808083E00000000003C424246
:10543000422020100804427E00000000003C42424E
:10544000201820404042221C00000000002030288C
:10545000242422227E20207800000000007E020208
:10546000021A26404042221C00000000003824029C
:10547000021A26424242241800000000007E222226
:10548000101008080808080800000000003C42420C
:10549000422418244242423C0000000000182442EA
:1054A000424264584040241C0000000000000000FC
:1054B000181800000000181800000000000000008C
:1054C0000008000000000008080400000040201050
:1054D0000804020408102040000000000000000042
:1054E0007F0000007F0000000000000000020408B0
:1054F000102040201008040200000000003C42423E
:10550000464020101000181800000000001C225A0D
:10551000555555552D42221C000000000008081862
:105520001414243C224242E700000000001F222203
:10553000221E22424242221F00000000007C424202
:10554000010101010142221C00000000001F224253
:10555000424242424242221F00000000003F4212EB
:10556000121E12120242423F00000000003F42128F
:10557000121E12120202020700000000003C22224A
:10558000010101712122221C0000000000E74242BB
:1055900042427E42424242E700000000003E0808CC
:1055A000080808080808083E00000000007C1010E9
:1055B0001010101010101010110F000000772212A0
:1055C0000A0E0A12122222770000000000070202CF
:1055D000020202020202427F00000000007736361B
:1055E00036362A2A2A2A2A6B0000000000E34646A3
:1055F0004A4A52525262624700000000001C224197
:10560000414141414141221C00000000003F424213
:1056100042423E020202020700000000001C22413A
:10562000414141414D53321C60000000003F424265
:10563000423E1212222242C700000000007C424279
:10564000020418204042423E00000000007F49084A
:10565000080808080808081C0000000000E742428B
:10566000424242424242423C0000000000E74242C5
:10567000222424141418080800000000006B494973
:1056800049495555362222220000000000E74224F5
:1056900024181818242442E7000000000077222272
:1056A000141408080808081C00000000007E2120CF
:1056B000101008040442423F00000078080808085F
:1056C0000808080808080808780000000202040416
:1056D00008080810102020204040001E1010101054
:1056E00010101010101010101E00003844000000A0
:1056F00000000000000000000000000000000000AA
:10570000000000000000000000FF0006080000008C
:105710000000000000000000000000000000000089
:10572000003C4278444242FC0000000000030202B8
:10573000021A26424242261A000000000000000021
:10574000003844020202443800000000006040407B
:1057500040784442424264D800000000000000004B
:10576000003C427E0202423C0000000000F088083B
:10577000087E08080808083E00000000000000003D
:10578000007C22221C023C42423C00000003020238
:10579000023A4642424242E700000000000C0C0080
:1057A000000E08080808083E000000000030300025
:1057B0000038202020202020221E000000030202AA
:1057C0000272120A1612227700000000000E08086A
:1057D000080808080808083E000000000000000053
:1057E000007F9292929292B70000000000000000A9
:1057F000003B4642424242E7000000000000000039
:10580000003C42424242423C0000000000000000D6
:10581000001B26424242221E020700000000000038
:10582000007844424242447840E00000000000001A
:1058300000774C040404041F000000000000000076
:10584000007C42023C40423E000000000000000894
:10585000083E0808080808300000000000000000AA
:1058600000634242424262DC00000000000000008F
:1058700000E7422424140808000000000000000093
:1058800000EB4949555522220000000000000000AD
:10589000007624181818246E000000000000000094
:1058A00000E7422424141808080700000000000044
:1058B000007E22100808447E000000C02020202026
:1058C0002010202020202020C000101010101010C8
:1058D0001010101010101010101000060808080802
:1058E000081008080808080806000C32C20000006A
:1058F0000000000000000000000000001C59000033
:105900000000001030000000080100004C590000A9
:1059100030000010880200002401000000093D0052
:1059200000000000FFFF0000FFFF0000000000007B
:105930000000000000000000000000000000000067
:0C5940000000000000000000000000005B
:04000005000000CD2A
:00000001FF
